:020000040000FA
:10000000FC3021009905C330190534389900991343
:1000100023008C018E0121009D019E019F0104306F
:1000200022009100920104309300940121000C12EF
:1000300022000C162000CA30A000A330A10080319D
:10004000A10B20288031A00B1D2820000130A0002A
:100050008031A00B29280000000022000C12200093
:100060000E30A000CF30A1002C30A2008031A20BB6
:1000700037288031A10B34288031A00B32280000B2
:08008000000000000000182838
:020000040001F9
:080000004000410042004300F2
:02000E00E40903
:02001000CF3EE1
:00000001FF
